{
  "_format": "hh-sol-artifact-1",
  "contractName": "Counter",
  "sourceName": "contracts/Counter.sol",
  "abi": [
    {
      "inputs": [
        {
          "internalType": "uint256",
          "name": "_count",
          "type": "uint256"
        }
      ],
      "stateMutability": "nonpayable",
      "type": "constructor"
    },
    {
      "inputs": [
        {
          "internalType": "uint256",
          "name": "num",
          "type": "uint256"
        }
      ],
      "name": "add",
      "outputs": [],
      "stateMutability": "nonpayable",
      "type": "function"
    },
    {
      "inputs": [],
      "name": "addOne",
      "outputs": [
        {
          "internalType": "uint256",
          "name": "",
          "type": "uint256"
        }
      ],
      "stateMutability": "nonpayable",
      "type": "function"
    },
    {
      "inputs": [],
      "name": "count",
      "outputs": [
        {
          "internalType": "uint256",
          "name": "",
          "type": "uint256"
        }
      ],
      "stateMutability": "view",
      "type": "function"
    },
    {
      "inputs": [],
      "name": "getCount",
      "outputs": [
        {
          "internalType": "uint256",
          "name": "",
          "type": "uint256"
        }
      ],
      "stateMutability": "view",
      "type": "function"
    }
  ],
  "bytecode": "0x608060405234801561001057600080fd5b506040516107a83803806107a883398181016040528101906100329190610168565b61007b6040518060400160405280600681526020017f5f636f756e7400000000000000000000000000000000000000000000000000008152508261008860201b6101f41760201c565b806000819055505061028a565b610126828260405160240161009e9291906101d9565b6040516020818303038152906040527f9710a9d0000000000000000000000000000000000000000000000000000000007bffffffffffffffffffffffffffffffffffffffffffffffffffffffff19166020820180517bffffffffffffffffffffffffffffffffffffffffffffffffffffffff838183161783525050505061012a60201b60201c565b5050565b60008151905060006a636f6e736f6c652e6c6f679050602083016000808483855afa5050505050565b60008151905061016281610273565b92915050565b60006020828403121561017a57600080fd5b600061018884828501610153565b91505092915050565b600061019c82610209565b6101a68185610214565b93506101b681856020860161022f565b6101bf81610262565b840191505092915050565b6101d381610225565b82525050565b600060408201905081810360008301526101f38185610191565b905061020260208301846101ca565b9392505050565b600081519050919050565b600082825260208201905092915050565b6000819050919050565b60005b8381101561024d578082015181840152602081019050610232565b8381111561025c576000848401525b50505050565b6000601f19601f8301169050919050565b61027c81610225565b811461028757600080fd5b50565b61050f806102996000396000f3fe608060405234801561001057600080fd5b506004361061004c5760003560e01c806306661abd146100515780631003e2d21461006f5780636057d3ee1461008b578063a87d942c146100a9575b600080fd5b6100596100c7565b604051610066919061036f565b60405180910390f35b610089600480360381019061008491906102ce565b6100cd565b005b61009361014b565b6040516100a0919061036f565b60405180910390f35b6100b16101a9565b6040516100be919061036f565b60405180910390f35b60005481565b61010e6040518060400160405280600581526020017f636f756e740000000000000000000000000000000000000000000000000000008152506000546101f4565b60008114156101335760008081548092919061012990610439565b9190505550610148565b8060005461014191906103a6565b6000819055505b50565b600061018e6040518060400160405280600581526020017f636f756e740000000000000000000000000000000000000000000000000000008152506000546101f4565b6000808154809291906101a090610439565b91905055905090565b60006101ec6040518060400160405280600881526020017f676574436f756e740000000000000000000000000000000000000000000000008152506000546101f4565b600054905090565b61028c828260405160240161020a92919061033f565b6040516020818303038152906040527f9710a9d0000000000000000000000000000000000000000000000000000000007bffffffffffffffffffffffffffffffffffffffffffffffffffffffff19166020820180517bffffffffffffffffffffffffffffffffffffffffffffffffffffffff8381831617835250505050610290565b5050565b60008151905060006a636f6e736f6c652e6c6f679050602083016000808483855afa5050505050565b6000813590506102c8816104c2565b92915050565b6000602082840312156102e057600080fd5b60006102ee848285016102b9565b91505092915050565b60006103028261038a565b61030c8185610395565b935061031c818560208601610406565b610325816104b1565b840191505092915050565b610339816103fc565b82525050565b6000604082019050818103600083015261035981856102f7565b90506103686020830184610330565b9392505050565b60006020820190506103846000830184610330565b92915050565b600081519050919050565b600082825260208201905092915050565b60006103b1826103fc565b91506103bc836103fc565b9250827fffffffffffffffffffffffffffffffffffffffffffffffffffffffffffffffff038211156103f1576103f0610482565b5b828201905092915050565b6000819050919050565b60005b83811015610424578082015181840152602081019050610409565b83811115610433576000848401525b50505050565b6000610444826103fc565b91507fffffffffffffffffffffffffffffffffffffffffffffffffffffffffffffffff82141561047757610476610482565b5b600182019050919050565b7f4e487b7100000000000000000000000000000000000000000000000000000000600052601160045260246000fd5b6000601f19601f8301169050919050565b6104cb816103fc565b81146104d657600080fd5b5056fea264697066735822122007760a46ccfcd165817e25c90982752d9f46f6ffc4fae53fac47ee8d35dc937564736f6c63430008040033",
  "linkReferences": {},
  "deployedLinkReferences": {}
}